{
  "_format": "hh-sol-artifact-1",
  "contractName": "PiggyFactory",
  "sourceName": "contracts/PiggyFactory.sol",
  "abi": [
    {
      "inputs": [
        {
          "internalType": "uint256",
          "name": "",
          "type": "uint256"
        }
      ],
      "name": "accounts",
      "outputs": [
        {
          "internalType": "contract PiggyBank",
          "name": "",
          "type": "address"
        }
      ],
      "stateMutability": "view",
      "type": "function"
    },
    {
      "inputs": [],
      "name": "create_piggyBank",
      "outputs": [],
      "stateMutability": "nonpayable",
      "type": "function"
    },
    {
      "inputs": [
        {
          "internalType": "address",
          "name": "_user",
          "type": "address"
        },
        {
          "internalType": "uint256",
          "name": "_index",
          "type": "uint256"
        }
      ],
      "name": "get_balances",
      "outputs": [
        {
          "internalType": "uint256",
          "name": "",
          "type": "uint256"
        }
      ],
      "stateMutability": "view",
      "type": "function"
    }
  ],
  "bytecode": "0x6080604052348015600f57600080fd5b50612b2c8061001f6000396000f3fe608060405234801561001057600080fd5b50600436106100415760003560e01c80634e20405914610046578063aa85169c14610050578063f2a40db814610080575b600080fd5b61004e6100b0565b005b61006a60048036038101906100659190610342565b61014e565b6040516100779190610391565b60405180910390f35b61009a600480360381019061009591906103ac565b61025d565b6040516100a79190610438565b60405180910390f35b6000306040516100bf9061029c565b6100c99190610462565b604051809103906000f0801580156100e5573d6000803e3d6000fd5b5090506000819080600181540180825580915050600190039060005260206000200160009091909190916101000a81548173ffffffffffffffffffffffffffffffffffffffff021916908373ffffffffffffffffffffffffffffffffffffffff16021790555050565b600080805490508210610196576040517f08c379a000000000000000000000000000000000000000000000000000000000815260040161018d906104da565b60405180910390fd5b60008083815481106101ab576101aa6104fa565b5b9060005260206000200160009054906101000a900473ffffffffffffffffffffffffffffffffffffffff1690508073ffffffffffffffffffffffffffffffffffffffff166379d8a5fb85856040518363ffffffff1660e01b8152600401610213929190610529565b602060405180830381865afa158015610230573d6000803e3d6000fd5b505050506040513d601f19601f820116820180604052508101906102549190610567565b91505092915050565b6000818154811061026d57600080fd5b906000526020600020016000915054906101000a900473ffffffffffffffffffffffffffffffffffffffff1681565b6125628061059583390190565b600080fd5b600073ffffffffffffffffffffffffffffffffffffffff82169050919050565b60006102d9826102ae565b9050919050565b6102e9816102ce565b81146102f457600080fd5b50565b600081359050610306816102e0565b92915050565b6000819050919050565b61031f8161030c565b811461032a57600080fd5b50565b60008135905061033c81610316565b92915050565b60008060408385031215610359576103586102a9565b5b6000610367858286016102f7565b92505060206103788582860161032d565b9150509250929050565b61038b8161030c565b82525050565b60006020820190506103a66000830184610382565b92915050565b6000602082840312156103c2576103c16102a9565b5b60006103d08482850161032d565b91505092915050565b6000819050919050565b60006103fe6103f96103f4846102ae565b6103d9565b6102ae565b9050919050565b6000610410826103e3565b9050919050565b600061042282610405565b9050919050565b61043281610417565b82525050565b600060208201905061044d6000830184610429565b92915050565b61045c816102ce565b82525050565b60006020820190506104776000830184610453565b92915050565b600082825260208201905092915050565b7f496e76616c6964204163636f756e740000000000000000000000000000000000600082015250565b60006104c4600f8361047d565b91506104cf8261048e565b602082019050919050565b600060208201905081810360008301526104f3816104b7565b9050919050565b7f4e487b7100000000000000000000000000000000000000000000000000000000600052603260045260246000fd5b600060408201905061053e6000830185610453565b61054b6020830184610382565b9392505050565b60008151905061056181610316565b92915050565b60006020828403121561057d5761057c6102a9565b5b600061058b84828501610552565b9150509291505056fe608060405234801561001057600080fd5b50604051612562380380612562833981810160405281019061003291906100e4565b80600360006101000a81548173ffffffffffffffffffffffffffffffffffffffff021916908373ffffffffffffffffffffffffffffffffffffffff160217905550600160028190555050610111565b600080fd5b600073ffffffffffffffffffffffffffffffffffffffff82169050919050565b60006100b182610086565b9050919050565b6100c1816100a6565b81146100cc57600080fd5b50565b6000815190506100de816100b8565b92915050565b6000602082840312156100fa576100f9610081565b5b6000610108848285016100cf565b91505092915050565b612442806101206000396000f3fe6080604052600436106100865760003560e01c806383532d681161005957806383532d68146101515780638da5cb5b14610193578063b5c5f672146101be578063ebe56b9e146101da578063ed66aa1b1461020357610086565b80630efe6a8b1461008b578063365b98b2146100a757806339072462146100e957806379d8a5fb14610114575b600080fd5b6100a560048036038101906100a09190611396565b61022e565b005b3480156100b357600080fd5b506100ce60048036038101906100c991906113e9565b610494565b6040516100e09695949392919061153b565b60405180910390f35b3480156100f557600080fd5b506100fe610595565b60405161010b91906115a3565b60405180910390f35b34801561012057600080fd5b5061013b600480360381019061013691906115be565b61059b565b60405161014891906115a3565b60405180910390f35b34801561015d57600080fd5b50610178600480360381019061017391906115be565b6106c6565b60405161018a9695949392919061153b565b60405180910390f35b34801561019f57600080fd5b506101a86107d4565b6040516101b591906115fe565b60405180910390f35b6101d860048036038101906101d39190611396565b6107fa565b005b3480156101e657600080fd5b5061020160048036038101906101fc9190611773565b610d6b565b005b34801561020f57600080fd5b5061021861114e565b60405161022591906119b8565b60405180910390f35b6002548210610272576040517f08c379a000000000000000000000000000000000000000000000000000000000815260040161026990611a26565b60405180910390fd5b6000600160003373ffffffffffffffffffffffffffffffffffffffff1673ffffffffffffffffffffffffffffffffffffffff1681526020019081526020016000206001846102c09190611a75565b815481106102d1576102d0611aa9565b5b9060005260206000209060060201905060005b60008054905081101561048d5760006001811115610305576103046114c4565b5b6000828154811061031957610318611aa9565b5b906000526020600020906006020160050160009054906101000a900460ff16600181111561034a576103496114c4565b5b036103b25760003411610392576040517f08c379a000000000000000000000000000000000000000000000000000000000815260040161038990611b24565b60405180910390fd5b828260030160008282546103a69190611b44565b92505081905550610480565b600073ffffffffffffffffffffffffffffffffffffffff168573ffffffffffffffffffffffffffffffffffffffff1603610421576040517f08c379a000000000000000000000000000000000000000000000000000000000815260040161041890611bc4565b60405180910390fd5b60008311610464576040517f08c379a000000000000000000000000000000000000000000000000000000000815260040161045b90611c30565b60405180910390fd5b828260030160008282546104789190611b44565b925050819055505b80806001019150506102e4565b5050505050565b600081815481106104a457600080fd5b90600052602060002090600602016000915090508060000180546104c790611c7f565b80601f01602080910402602001604051908101604052809291908181526020018280546104f390611c7f565b80156105405780601f1061051557610100808354040283529160200191610540565b820191906000526020600020905b81548152906001019060200180831161052357829003601f168201915b5050505050908060010160009054906101000a900473ffffffffffffffffffffffffffffffffffffffff16908060020154908060030154908060040154908060050160009054906101000a900460ff16905086565b60025481565b60008273ffffffffffffffffffffffffffffffffffffffff163373ffffffffffffffffffffffffffffffffffffffff161461060b576040517f08c379a000000000000000000000000000000000000000000000000000000000815260040161060290611d22565b60405180910390fd5b600254821061064f576040517f08c379a000000000000000000000000000000000000000000000000000000000815260040161064690611d8e565b60405180910390fd5b600160008473ffffffffffffffffffffffffffffffffffffffff1673ffffffffffffffffffffffffffffffffffffffff16815260200190815260200160002060018361069b9190611a75565b815481106106ac576106ab611aa9565b5b906000526020600020906006020160030154905092915050565b600160205281600052604060002081815481106106e257600080fd5b90600052602060002090600602016000915091505080600001805461070690611c7f565b80601f016020809104026020016040519081016040528092919081815260200182805461073290611c7f565b801561077f5780601f106107545761010080835404028352916020019161077f565b820191906000526020600020905b81548152906001019060200180831161076257829003601f168201915b5050505050908060010160009054906101000a900473ffffffffffffffffffffffffffffffffffffffff16908060020154908060030154908060040154908060050160009054906101000a900460ff16905086565b600360009054906101000a900473ffffffffffffffffffffffffffffffffffffffff1681565b600254821061083e576040517f08c379a000000000000000000000000000000000000000000000000000000000815260040161083590611a26565b60405180910390fd5b6000600160003373ffffffffffffffffffffffffffffffffffffffff1673ffffffffffffffffffffffffffffffffffffffff16815260200190815260200160002060018461088c9190611a75565b8154811061089d5761089c611aa9565b5b90600052602060002090600602019050600082116108f0576040517f08c379a00000000000000000000000000000000000000000000000000000000081526004016108e790611c30565b60405180910390fd5b8181600301541015610937576040517f08c379a000000000000000000000000000000000000000000000000000000000815260040161092e90611dfa565b60405180910390fd5b80600401544211610bfa5760008211610985576040517f08c379a000000000000000000000000000000000000000000000000000000000815260040161097c90611e66565b60405180910390fd5b600060646003846109969190611e86565b6109a09190611ef7565b9050600081846109b09190611a75565b905060005b600080549050811015610bf257600060018111156109d6576109d56114c4565b5b600082815481106109ea576109e9611aa9565b5b906000526020600020906006020160050160009054906101000a900460ff166001811115610a1b57610a1a6114c4565b5b03610ad5573373ffffffffffffffffffffffffffffffffffffffff166108fc839081150290604051600060405180830381858888f19350505050158015610a66573d6000803e3d6000fd5b50600360009054906101000a900473ffffffffffffffffffffffffffffffffffffffff1673ffffffffffffffffffffffffffffffffffffffff166108fc849081150290604051600060405180830381858888f19350505050158015610acf573d6000803e3d6000fd5b50610bca565b600073ffffffffffffffffffffffffffffffffffffffff168773ffffffffffffffffffffffffffffffffffffffff1603610b44576040517f08c379a0000000000000000000000000000000000000000000000000000000008152600401610b3b90611bc4565b60405180910390fd5b60008790508073ffffffffffffffffffffffffffffffffffffffff1663a9059cbb33856040518363ffffffff1660e01b8152600401610b84929190611f28565b6020604051808303816000875af1158015610ba3573d6000803e3d6000fd5b505050506040513d601f19601f82011682018060405250810190610bc79190611f89565b50505b81846003016000828254610bde9190611a75565b9250508190555080806001019150506109b5565b505050610d65565b60005b600080549050811015610d635760006001811115610c1e57610c1d6114c4565b5b60008281548110610c3257610c31611aa9565b5b906000526020600020906006020160050160009054906101000a900460ff166001811115610c6357610c626114c4565b5b03610c885782826003016000828254610c7c9190611a75565b92505081905550610d56565b600073ffffffffffffffffffffffffffffffffffffffff168573ffffffffffffffffffffffffffffffffffffffff1603610cf7576040517f08c379a0000000000000000000000000000000000000000000000000000000008152600401610cee90611bc4565b60405180910390fd5b60008311610d3a576040517f08c379a0000000000000000000000000000000000000000000000000000000008152600401610d3190611c30565b60405180910390fd5b82826003016000828254610d4e9190611a75565b925050819055505b8080600101915050610bfd565b505b50505050565b814210610dad576040517f08c379a0000000000000000000000000000000000000000000000000000000008152600401610da490612028565b60405180910390fd5b600180811115610dc057610dbf6114c4565b5b816001811115610dd357610dd26114c4565b5b03610e4857600073ffffffffffffffffffffffffffffffffffffffff168373ffffffffffffffffffffffffffffffffffffffff1603610e47576040517f08c379a0000000000000000000000000000000000000000000000000000000008152600401610e3e90612094565b60405180910390fd5b5b60006001811115610e5c57610e5b6114c4565b5b816001811115610e6f57610e6e6114c4565b5b03610ee457600073ffffffffffffffffffffffffffffffffffffffff168373ffffffffffffffffffffffffffffffffffffffff1614610ee3576040517f08c379a0000000000000000000000000000000000000000000000000000000008152600401610eda90612126565b60405180910390fd5b5b60006040518060c001604052808681526020018573ffffffffffffffffffffffffffffffffffffffff168152602001600254815260200160008152602001848152602001836001811115610f3b57610f3a6114c4565b5b8152509050600160003373ffffffffffffffffffffffffffffffffffffffff1673ffffffffffffffffffffffffffffffffffffffff1681526020019081526020016000208190806001815401808255809150506001900390600052602060002090600602016000909190919091506000820151816000019081610fbe91906122f2565b5060208201518160010160006101000a81548173ffffffffffffffffffffffffffffffffffffffff021916908373ffffffffffffffffffffffffffffffffffffffff16021790555060408201518160020155606082015181600301556080820151816004015560a08201518160050160006101000a81548160ff0219169083600181111561104f5761104e6114c4565b5b021790555050506000819080600181540180825580915050600190039060005260206000209060060201600090919091909150600082015181600001908161109791906122f2565b5060208201518160010160006101000a81548173ffffffffffffffffffffffffffffffffffffffff021916908373ffffffffffffffffffffffffffffffffffffffff16021790555060408201518160020155606082015181600301556080820151816004015560a08201518160050160006101000a81548160ff02191690836001811115611128576111276114c4565b5b0217905550505060026000815480929190611142906123c4565b91905055505050505050565b60606000805480602002602001604051908101604052809291908181526020016000905b828210156112e557838290600052602060002090600602016040518060c00160405290816000820180546111a590611c7f565b80601f01602080910402602001604051908101604052809291908181526020018280546111d190611c7f565b801561121e5780601f106111f35761010080835404028352916020019161121e565b820191906000526020600020905b81548152906001019060200180831161120157829003601f168201915b505050505081526020016001820160009054906101000a900473ffffffffffffffffffffffffffffffffffffffff1673ffffffffffffffffffffffffffffffffffffffff1673ffffffffffffffffffffffffffffffffffffffff1681526020016002820154815260200160038201548152602001600482015481526020016005820160009054906101000a900460ff1660018111156112c0576112bf6114c4565b5b60018111156112d2576112d16114c4565b5b8152505081526020019060010190611172565b50505050905090565b6000604051905090565b600080fd5b600080fd5b600073ffffffffffffffffffffffffffffffffffffffff82169050919050565b600061132d82611302565b9050919050565b61133d81611322565b811461134857600080fd5b50565b60008135905061135a81611334565b92915050565b6000819050919050565b61137381611360565b811461137e57600080fd5b50565b6000813590506113908161136a565b92915050565b6000806000606084860312156113af576113ae6112f8565b5b60006113bd8682870161134b565b93505060206113ce86828701611381565b92505060406113df86828701611381565b9150509250925092565b6000602082840312156113ff576113fe6112f8565b5b600061140d84828501611381565b91505092915050565b600081519050919050565b600082825260208201905092915050565b60005b83811015611450578082015181840152602081019050611435565b60008484015250505050565b6000601f19601f8301169050919050565b600061147882611416565b6114828185611421565b9350611492818560208601611432565b61149b8161145c565b840191505092915050565b6114af81611322565b82525050565b6114be81611360565b82525050565b7f4e487b7100000000000000000000000000000000000000000000000000000000600052602160045260246000fd5b60028110611504576115036114c4565b5b50565b6000819050611515826114f3565b919050565b600061152582611507565b9050919050565b6115358161151a565b82525050565b600060c0820190508181036000830152611555818961146d565b905061156460208301886114a6565b61157160408301876114b5565b61157e60608301866114b5565b61158b60808301856114b5565b61159860a083018461152c565b979650505050505050565b60006020820190506115b860008301846114b5565b92915050565b600080604083850312156115d5576115d46112f8565b5b60006115e38582860161134b565b92505060206115f485828601611381565b9150509250929050565b600060208201905061161360008301846114a6565b92915050565b600080fd5b600080fd5b7f4e487b7100000000000000000000000000000000000000000000000000000000600052604160045260246000fd5b61165b8261145c565b810181811067ffffffffffffffff8211171561167a57611679611623565b5b80604052505050565b600061168d6112ee565b90506116998282611652565b919050565b600067ffffffffffffffff8211156116b9576116b8611623565b5b6116c28261145c565b9050602081019050919050565b82818337600083830152505050565b60006116f16116ec8461169e565b611683565b90508281526020810184848401111561170d5761170c61161e565b5b6117188482856116cf565b509392505050565b600082601f83011261173557611734611619565b5b81356117458482602086016116de565b91505092915050565b6002811061175b57600080fd5b50565b60008135905061176d8161174e565b92915050565b6000806000806080858703121561178d5761178c6112f8565b5b600085013567ffffffffffffffff8111156117ab576117aa6112fd565b5b6117b787828801611720565b94505060206117c88782880161134b565b93505060406117d987828801611381565b92505060606117ea8782880161175e565b91505092959194509250565b600081519050919050565b600082825260208201905092915050565b6000819050602082019050919050565b600082825260208201905092915050565b600061183e82611416565b6118488185611822565b9350611858818560208601611432565b6118618161145c565b840191505092915050565b61187581611322565b82525050565b61188481611360565b82525050565b6118938161151a565b82525050565b600060c08301600083015184820360008601526118b68282611833565b91505060208301516118cb602086018261186c565b5060408301516118de604086018261187b565b5060608301516118f1606086018261187b565b506080830151611904608086018261187b565b5060a083015161191760a086018261188a565b508091505092915050565b600061192e8383611899565b905092915050565b6000602082019050919050565b600061194e826117f6565b6119588185611801565b93508360208202850161196a85611812565b8060005b858110156119a657848403895281516119878582611922565b945061199283611936565b925060208a0199505060018101905061196e565b50829750879550505050505092915050565b600060208201905081810360008301526119d28184611943565b905092915050565b7f496e76616c696420757365720000000000000000000000000000000000000000600082015250565b6000611a10600c83611421565b9150611a1b826119da565b602082019050919050565b60006020820190508181036000830152611a3f81611a03565b9050919050565b7f4e487b7100000000000000000000000000000000000000000000000000000000600052601160045260246000fd5b6000611a8082611360565b9150611a8b83611360565b9250828203905081811115611aa357611aa2611a46565b5b92915050565b7f4e487b7100000000000000000000000000000000000000000000000000000000600052603260045260246000fd5b7f43616e6e6f742073656e64207a65726f20657468657273000000000000000000600082015250565b6000611b0e601783611421565b9150611b1982611ad8565b602082019050919050565b60006020820190508181036000830152611b3d81611b01565b9050919050565b6000611b4f82611360565b9150611b5a83611360565b9250828201905080821115611b7257611b71611a46565b5b92915050565b7f496e76616c696420746f6b656e20616464726573730000000000000000000000600082015250565b6000611bae601583611421565b9150611bb982611b78565b602082019050919050565b60006020820190508181036000830152611bdd81611ba1565b9050919050565b7f496e76616c696420616d6f756e74000000000000000000000000000000000000600082015250565b6000611c1a600e83611421565b9150611c2582611be4565b602082019050919050565b60006020820190508181036000830152611c4981611c0d565b9050919050565b7f4e487b7100000000000000000000000000000000000000000000000000000000600052602260045260246000fd5b60006002820490506001821680611c9757607f821691505b602082108103611caa57611ca9611c50565b5b50919050565b7f596f7520617265206e6f7420746865206f776e6572206f66207468697320616360008201527f636f756e74000000000000000000000000000000000000000000000000000000602082015250565b6000611d0c602583611421565b9150611d1782611cb0565b604082019050919050565b60006020820190508181036000830152611d3b81611cff565b9050919050565b7f496e76616c6964206163636f756e742064657461696c73000000000000000000600082015250565b6000611d78601783611421565b9150611d8382611d42565b602082019050919050565b60006020820190508181036000830152611da781611d6b565b9050919050565b7f496e73756666696369656e742062616c616e6365000000000000000000000000600082015250565b6000611de4601483611421565b9150611def82611dae565b602082019050919050565b60006020820190508181036000830152611e1381611dd7565b9050919050565b7f496e76616c696420416d6f756e74000000000000000000000000000000000000600082015250565b6000611e50600e83611421565b9150611e5b82611e1a565b602082019050919050565b60006020820190508181036000830152611e7f81611e43565b9050919050565b6000611e9182611360565b9150611e9c83611360565b9250828202611eaa81611360565b91508282048414831517611ec157611ec0611a46565b5b5092915050565b7f4e487b7100000000000000000000000000000000000000000000000000000000600052601260045260246000fd5b6000611f0282611360565b9150611f0d83611360565b925082611f1d57611f1c611ec8565b5b828204905092915050565b6000604082019050611f3d60008301856114a6565b611f4a60208301846114b5565b9392505050565b60008115159050919050565b611f6681611f51565b8114611f7157600080fd5b50565b600081519050611f8381611f5d565b92915050565b600060208284031215611f9f57611f9e6112f8565b5b6000611fad84828501611f74565b91505092915050565b7f556e6c6f636b2074696d652073686f756c6420626520696e207468652066757460008201527f7572650000000000000000000000000000000000000000000000000000000000602082015250565b6000612012602383611421565b915061201d82611fb6565b604082019050919050565b6000602082019050818103600083015261204181612005565b9050919050565b7f496e76616c696420416464726573730000000000000000000000000000000000600082015250565b600061207e600f83611421565b915061208982612048565b602082019050919050565b600060208201905081810360008301526120ad81612071565b9050919050565b7f546f6b656e2061646472657373206d757374206265207a65726f20666f72206560008201527f7468657273000000000000000000000000000000000000000000000000000000602082015250565b6000612110602583611421565b915061211b826120b4565b604082019050919050565b6000602082019050818103600083015261213f81612103565b9050919050565b60008190508160005260206000209050919050565b60006020601f8301049050919050565b600082821b905092915050565b6000600883026121a87fffffffffffffffffffffffffffffffffffffffffffffffffffffffffffffffff8261216b565b6121b2868361216b565b95508019841693508086168417925050509392505050565b6000819050919050565b60006121ef6121ea6121e584611360565b6121ca565b611360565b9050919050565b6000819050919050565b612209836121d4565b61221d612215826121f6565b848454612178565b825550505050565b600090565b612232612225565b61223d818484612200565b505050565b5b818110156122615761225660008261222a565b600181019050612243565b5050565b601f8211156122a65761227781612146565b6122808461215b565b8101602085101561228f578190505b6122a361229b8561215b565b830182612242565b50505b505050565b600082821c905092915050565b60006122c9600019846008026122ab565b1980831691505092915050565b60006122e283836122b8565b9150826002028217905092915050565b6122fb82611416565b67ffffffffffffffff81111561231457612313611623565b5b61231e8254611c7f565b612329828285612265565b600060209050601f83116001811461235c576000841561234a578287015190505b61235485826122d6565b8655506123bc565b601f19841661236a86612146565b60005b828110156123925784890151825560018201915060208501945060208101905061236d565b868310156123af57848901516123ab601f8916826122b8565b8355505b6001600288020188555050505b505050505050565b60006123cf82611360565b91507fffffffffffffffffffffffffffffffffffffffffffffffffffffffffffffffff820361240157612400611a46565b5b60018201905091905056fea264697066735822122053b04dd6eae20d47723c099930720cff7c3864398981ee4244959686bbbad12864736f6c634300081c0033a2646970667358221220ccd9356ea31f7f8a8635f3c2e5d7f3484aecc353c40831a3fa3c03ad31a13ca064736f6c634300081c0033",
  "linkReferences": {},
  "deployedLinkReferences": {}
}